{
  "_format": "hh-sol-artifact-1",
  "contractName": "Wallet",
  "sourceName": "contracts/Wallet.sol",
  "abi": [
    {
      "stateMutability": "payable",
      "type": "fallback"
    },
    {
      "inputs": [],
      "name": "getBalance",
      "outputs": [
        {
          "internalType": "uint256",
          "name": "",
          "type": "uint256"
        }
      ],
      "stateMutability": "view",
      "type": "function"
    },
    {
      "inputs": [
        {
          "internalType": "address payable",
          "name": "_to",
          "type": "address"
        },
        {
          "internalType": "uint256",
          "name": "_amount",
          "type": "uint256"
        }
      ],
      "name": "withdraw",
      "outputs": [],
      "stateMutability": "nonpayable",
      "type": "function"
    },
    {
      "stateMutability": "payable",
      "type": "receive"
    }
  ],
  "bytecode": "0x6080604052348015600f57600080fd5b506104918061001f6000396000f3fe60806040526004361061002d5760003560e01c806312065fe014610089578063f3fef3a3146100b457610087565b3661008757346000803373ffffffffffffffffffffffffffffffffffffffff1673ffffffffffffffffffffffffffffffffffffffff1681526020019081526020016000206000828254610080919061027d565b9250508190555b005b34801561009557600080fd5b5061009e6100dd565b6040516100ab91906102c0565b60405180910390f35b3480156100c057600080fd5b506100db60048036038101906100d6919061036a565b610123565b005b60008060003373ffffffffffffffffffffffffffffffffffffffff1673ffffffffffffffffffffffffffffffffffffffff16815260200190815260200160002054905090565b806000803373ffffffffffffffffffffffffffffffffffffffff1673ffffffffffffffffffffffffffffffffffffffff1681526020019081526020016000205410156101a4576040517f08c379a000000000000000000000000000000000000000000000000000000000815260040161019b90610407565b60405180910390fd5b806000803373ffffffffffffffffffffffffffffffffffffffff1673ffffffffffffffffffffffffffffffffffffffff16815260200190815260200160002060008282546101f29190610427565b925050819055508173ffffffffffffffffffffffffffffffffffffffff166108fc829081150290604051600060405180830381858888f1935050505015801561023f573d6000803e3d6000fd5b505050565b6000819050919050565b7f4e487b7100000000000000000000000000000000000000000000000000000000600052601160045260246000fd5b600061028882610244565b915061029383610244565b92508282019050808211156102ab576102aa61024e565b5b92915050565b6102ba81610244565b82525050565b60006020820190506102d560008301846102b1565b92915050565b600080fd5b600073ffffffffffffffffffffffffffffffffffffffff82169050919050565b600061030b826102e0565b9050919050565b61031b81610300565b811461032657600080fd5b50565b60008135905061033881610312565b92915050565b61034781610244565b811461035257600080fd5b50565b6000813590506103648161033e565b92915050565b60008060408385031215610381576103806102db565b5b600061038f85828601610329565b92505060206103a085828601610355565b9150509250929050565b600082825260208201905092915050565b7f496e73756666696369656e742062616c616e6365000000000000000000000000600082015250565b60006103f16014836103aa565b91506103fc826103bb565b602082019050919050565b60006020820190508181036000830152610420816103e4565b9050919050565b600061043282610244565b915061043d83610244565b92508282039050818111156104555761045461024e565b5b9291505056fea26469706673582212207362498800a1e79f0a46aa1c04cb37fd678ae1c8367331cb0978b22bf5485d8a64736f6c634300081c0033",
  "linkReferences": {},
  "deployedLinkReferences": {}
}